:020000040000FA
:060000006AEF07F0120098
:0A00060001002C0F00006000000054
:0400100019000000D3
:0C001400D9CFE6FFE1CFD9FFFB0EDBCF18
:1000200000F0FC0EDBCF01F0FD0EDBCF02F0FE0E88
:10003000DBCF03F00050025C0150035803E2F36A87
:10004000F46A13D0FD0EDBCF02F0FE0EDBCF03F01F
:10005000FB0EDB50025C006EFC0EDB500358016EA1
:1000600000C0F3FF01C0F4FF00D0E552E7CFD9FF95
:100070001200D9CFE6FFE1CFD9FFD950FD0FE96ECD
:10008000FF0EDA20EA6EFF0ED880EE54000EED541B
:1000900002E2FF0E03D0FD0EDB5000D0E552E7CFA9
:1000A000D9FF1200D9CFE6FFE1CFD9FFFE0EDBCF9B
:1000B000E6FF2DEC07F0E5523C0EE66E78EC07F01B
:1000C000E55293EC07F08CEC07F0000901E0FBD758
:1000D0003C0EE66E78EC07F0E55283EC07F000D0BA
:1000E000E552E7CFD9FF1200D9CFE6FFE1CFD9FF24
:1000F000040EE12682800A0EE66E78EC07F0E552E7
:1001000082840A0EE66E78EC07F0E55282940A0EBD
:10011000E66E78EC07F0E5528290DF6A070EDF5C4E
:1001200001E33DD182840A0EE66E78EC07F0E552D9
:1001300082940A0EE66E78EC07F0E5520401045151
:10014000E66EE66A8F0EE66EADDFE552F3CF02F0A3
:10015000F4CF03F000C429F001C42AF002C42BF04C
:1001600003C42CF0DAEC04F002C02FF003C030F02E
:10017000BCEC04F028C000F029C001F08C0E2F6EFA
:10018000306A00C02AF001C02BF044EC07F02AC00E
:1001900000F02BC001F000C0E6FF01C0E6FF3ADF2F
:1001A000E552E552E552E552020EF3CFDBFF030EB6
:1001B000F4CFDBFF0401000ED8800555000E065574
:1001C00001E3C2D0EA6ADF34FE0BEA36E96E620E62
:1001D000E926000EEA22EECF0EF0EFCF0FF00EC0B0
:1001E0002AF00FC02BF050EC03F029C00AF02AC00F
:1001F0000BF02BC00CF02CC00DF005C42AF006C487
:100200002BF050EC03F029C010F02AC011F02BC0E5
:1002100012F02CC013F010C02EF011C02FF012C03D
:1002200030F013C031F00AC029F00BC02AF00CC026
:100230002BF00DC02CF04FEC04F029C006F02AC0C2
:1002400007F02BC008F02CC009F0020EDBCF2AF01B
:10025000030EDBCF2BF050EC03F029C018F02AC0BE
:1002600019F02BC01AF02CC01BF005C420F006C4F6
:1002700021F0FF0ED8802056000E215620C02AF013
:1002800021C02BF050EC03F029C01CF02AC01DF057
:100290002BC01EF02CC01FF01CC02EF01DC02FF074
:1002A0001EC030F01FC031F018C029F019C02AF06C
:1002B0001AC02BF01BC02CF04FEC04F029C014F036
:1002C0002AC015F02BC016F02CC017F014C02EF069
:1002D00015C02FF016C030F017C031F006C029F05D
:1002E00007C02AF008C02BF009C02CF066EC03F020
:1002F00029C002F02AC003F02BC004F02CC005F086
:100300002E6A2F6A7F0E306E430E316E02C029F0C6
:1003100003C02AF004C02BF005C02CF0FCEC03F065
:10032000DAEC04F02AC000F02BC001F0EA6ADF34F6
:10033000FE0BEA36E96E620EE926000EEA2200C0E4
:10034000EEFF01C0EDFF0FD0EA6ADF34FE0BEA36A4
:10035000E96E620EE926000EEA22020EDBCFEEFF06
:10036000030EDBCFEDFFEA6ADF34FE0BEA36E96EFF
:10037000620EE926000EEA22FF0ED880EE54000E2F
:10038000ED540BE2EA6ADF34FE0BEA36E96E620EE8
:10039000E926000EEA22EE68ED6ADF2ABFD662C0C7
:1003A00070F0000162516425006E63516521016E99
:1003B000D8900132003200C071F064C072F0645114
:1003C0006625006E65516721016ED89001320032BA
:1003D00000C073F066C074F066516825006E675106
:1003E0006921016ED8900132003200C075F068C0FA
:1003F00076F068516A25006E69516B21016ED890C4
:100400000132003200C077F06AC078F0040EE15C7F
:1004100002E2E16AE552E16EE552E7CFD9FF120050
:10042000D9CFE6FFE1CFD9FF020EE1269F0EE66E9F
:1004300039DEE552F3CF00F0F4CF01F0030E2F6E5A
:10044000306A00C02AF001C02BF044EC07F02AC04B
:1004500000F02BC001F000C0DEFF01C0DDFFDECFE9
:1004600000F0DDCF01F00001016A010E001600501E
:10047000011004E0DF06010E01E2DB06D9CFE9FF3F
:10048000DACFEAFFFE0ED880EE54000EED5403E200
:10049000FE0EDE6EDD6ADFCF60F0DECF00F0DDCF76
:1004A00001F0D8900132003200C061F000016151CA
:1004B000010B01E06107A70EE66EF4DDE552F3CF14
:1004C00000F0F4CF01F0D89001320032D890013220
:1004D000003200C02AF001C02BF050EC03F029C01C
:1004E00000F42AC001F42BC002F42CC003F4970ED0
:1004F000E66ED8DDE552F3CF00F0F4CF01F0040E44
:10050000D89001320032E804FBE100C004F4AF0EE1
:10051000E66EC8DDE552F3CF05F4F4CF06F404012E
:10052000D89006330533D89006330533020EE15CCC
:1005300002E2E16AE552E16EE552E7CFD9FF12002F
:10054000D9CFE6FFE1CFD9FF0C0EE126966A956A76
:10055000946A936A3F0E926E836A826A816A806EA1
:10056000846A090EC16E6D94040E6F6E0F0E9B6E41
:10057000720ED36E090EE66E040EE66EEF0EE66E98
:10058000A6EC06F0E552E552E5520A0E006E060EA4
:10059000DBCFE7FF0050E726060EE7CFDBFFDB509F
:1005A000640802E2060EDB6A800EE66E010EE66E5D
:1005B000E66ADDEC06F0E552E552E552040EDB6A30
:1005C000090EF36E040EDBCFF4FFF350F45C59E236
:1005D000030EDB6A240EF36E030EDBCFF4FFF35041
:1005E000F45C4CE2120EF36E030EDBCFF4FFF3501B
:1005F000F45C0CE2030EDBCFE6FF120EE552D8806E
:10060000E754E76E070EE7CFDBFF0BD0030EDBCF1F
:10061000E6FF360EE552D880E754E76E070EE7CFC7
:10062000DBFF040EDB50EA6A700FE96E000EEA226F
:10063000EFCF00F0070EDB50D880005418E20F0E09
:10064000F36E070EDBCFF4FFF350F45C0AE3070E02
:10065000DB50160806E361C0E6FF0FEC07F0E55239
:1006600005D060C0E6FF0FEC07F0E55204D0E66A63
:100670000FEC07F0E552030EDB2AACD7040EDB2AA1
:100680009FD791EC07F0CCDE2FDD7FD70C0EE15C1D
:1006900002E2E16AE552E16EE552E7CFD9FF1200CE
:1006A000239E08D0239E2BAE05D02A6C2B1EE86A11
:1006B0002B22238E2BC025F02AC024F0356A346A01
:1006C0008E0E266E276A25EF05F0317E236A61ECD7
:1006D00005F079EC05F023B609EF05F023A20AD066
:1006E00023AA03D023BE09EF05F023A415EF05F0DC
:1006F00012EF05F023AA05D023AC15EF05F012EF99
:1007000005F023A00AD023A808D023BE04D023A438
:1007100002D01EEF05F022EF05F0346A276A31504F
:100720002C5C336E10E329C035F02AC024F02BC0B6
:1007300025F02CC032F02EC029F02FC02AF030C096
:100740002BF0233A09D02EC035F02FC024F030C052
:1007500025F031C032F0336C239E23BC238E32C08F
:1007600026F023B051EF05F01A0E336051EF05F07B
:10077000266A2C6A23A408D0296C2A1E2B1E2C1E44
:10078000E86A2A222B222C2223AC08D0356C241EA6
:10079000251E261EE86A242225222622286A335294
:1007A00007E02C342B322A3229322832332EF9D763
:1007B000295035262A5024222B5025222C5026221F
:1007C00028C034F0239E26AE0BD0346C351E241E78
:1007D000251E261EE86A3522242225222622238E63
:1007E00026A006D0D8802532243235323432322A3F
:1007F00032C026F025EF05F0236A61EC05F079ECB4
:1008000005F023B609EF05F023A205D023BA09EFBE
:1008100005F010EF05F023BA1CEF05F023A005D07A
:1008200023B809EF05F01CEF05F023B810EF05F031
:10083000276A7F0E2C24266EE86A27223150265E16
:10084000E86A275A1A0E326E2C6A346A356A246AAC
:10085000256A2E50295E2F502A5A30502B5A000EEE
:100860002C5A09E72E5029262F502A2230502B22AD
:10087000000E2C2201D0348AD89029362A362B3605
:100880002C36D8903436353624362536322EE1D7FC
:100890002B502A102910D8A4348A25EF05F0236A9A
:1008A00061EC05F079EC05F023B609EF05F023A221
:1008B00005D023B809EF05F010EF05F023AA05D005
:1008C00023B009EF05F010EF05F023B002D023A804
:1008D00002D01CEF05F0276A31502C24266EE86AFE
:1008E00027227E0E265EE86A275A346A356A246A11
:1008F000256A30502B02F4CF25F0F3CF24F02F508F
:100900002B02F3503526F4502422000E25223050BD
:100910002A02F3503526F4502422000E25222E50B0
:100920002B02F3503426F4503522000E24222522C7
:100930002F502A02F3503426F4503522000E242280
:10094000252230502902F3503426F4503522000E6F
:10095000242225222E502A02F4503426000E35225D
:10096000242225222F502902F4503426000E35224D
:100970002422252225EF05F02AC034F02A502F0228
:10098000F4CF29F0F3CF28F02B503002F4CF2BF026
:10099000F3CF2AF02F02F3502926F4502A22E86AD6
:1009A0002B2234503002F3502926F4502A22E86AD0
:1009B0002B22000C236A61EC05F023B6E4EF04F06F
:1009C00023A20ED023B405D07F0E2B6EFF0E2A6E0D
:1009D0001FD0800E2B6E2A6A1BD02B6A2A6A18D071
:1009E00023B0FBD78F0E2C60EDD77E0E2C64F5D78D
:1009F0008E0E2C5C05E0D8902B322A322C2AF8D7A8
:100A000023A406D02A6C2B1EE86A2B222BAEE5D736
:100A100012007F0E2C6EFF0E2B6E2A6E296E1200B6
:100A20007F0E23BEFF0E2C6E02D07F0E2C6E800E2A
:100A30002B6E2A6A296AF3D723AE04D0800E2C6E5F
:100A40002B6AF7D72C6A2B6AF4D72550241035105F
:100A50003410F8E027BEF0D725BE0CD02650271062
:100A6000EBE0D89034363536243625362606D8A025
:100A70002706F2D72750D4E12628D2E034AE11D091
:100A80007F0E341402E135A00CD0352AE86A242206
:100A9000252207E3D880253224323532262A26281B
:100AA000BFE02650C9E035C029F024C02AF0253423
:100AB0002B6E26302C6E2B322C9E23BE2C8E0FEFED
:100AC00005F02B362C3602E32384237E06E12380B7
:100AD0002C6A2B6A2A6A296A12002C2803E0D88023
:100AE0002B321200D8902B3202E12382120023868F
:100AF00012003036313602E3238C237E06E1238850
:100B0000316A306A2F6A2E6A1200312803E0D880D9
:0E0B100030321200D8903032EAE1238A12000F
:020B1E0023238F
:100B20002323232323232323232323232222222299
:100B3000222221212121202020201F1F1F1F1E1EB5
:100B40001E1D1D1D1C1C1C1B1B1A1A1A19191818F6
:100B5000181717161615151514141313121212114F
:100B60001110100F0F0E0E0E0D0D0C0C0B0B0B0AAF
:100B70000A09090908080707070606060505050406
:100B80000404040303030302020202010101010140
:100B90000100000000000000000000000000000054
:100BA0000000000000000000000000000101010141
:100BB0000101020202020303030304040404050505
:100BC0000506060607070708080909090A0A0B0BA4
:100BD0000B0C0C0D0D0E0E0E0F0F1010111111122B
:100BE00012131314141515151616171718181819AB
:100BF000191A1A1A1B1B1C1C1C1D1D1D1E1E1E1F34
:100C00001F1F1F20202020212121212222222222D9
:100C100022232323232323232323232323232300C8
:100C200000000000000000000000000000000000C4
:100C300000000000000000000000000000000000B4
:100C400000000000000000000000000000000000A4
:100C50000000000000000000000000000000000094
:100C60000000000000000000000000000000000084
:100C70000000000000000000000000000000000074
:100C80000000000000000000000000000000000064
:100C90000000000000000000000000000000000054
:0E0CA000000000000000000000000000000046
:020CAE00060E30
:100CB000F66E000EF76E000EF86E00010900F5509A
:100CC0007E6F0900F5507F6F03E17E6701D03DD054
:100CD0000900F550796F0900F5507A6F0900F55059
:100CE0007B6F09000900F550E96E0900F550EA6EC6
:100CF000090009000900F5507C6F0900F5507D6F6F
:100D000009000900F6CF80F0F7CF81F0F8CF82F02C
:100D100079C0F6FF7AC0F7FF7BC0F8FF00017C5373
:100D200002E17D5307E00900F550EE6E7C07F8E222
:100D30007D07F9D780C0F6FF81C0F7FF82C0F8FFBA
:0C0D400000017E07000E7F5BBFD7120091
:040D4C00D9CFE6FF16
:100D5000DACFE6FFE1CFD9FFE2CFDAFFC26AC06A9D
:100D6000FC0EDB407F0B3C0BC26EFC0EDB38F00B45
:100D7000300B006EFB0EDB500F0B0010C16EFD0E32
:100D8000DB50040DF350380B016EFD0EDB380F0BFA
:100D9000070B006EFD0EDB50800B00100110C06EC3
:100DA000FC0EDBAE03D09E9C9D8CF28CC280E55283
:0A0DB000E5CFDAFFE7CFD9FF12000C
:060DBA00D9CFE6FFDACFFD
:100DC000E6FFE1CFD9FFE2CFDAFF3F0EC716C66AD2
:100DD000FD0EDB50C612FB0EDB50C712FC0EDB50C3
:100DE000030A09E0010A04E0020A06E1C78C04D004
:100DF000C78CC68801D0C688FD0EDB50050A03E00B
:100E0000010A03E1928A938201D093929380949E87
:0E0E1000C68AE552E5CFDAFFE7CFD9FF120020
:020E1E00D9CF2A
:100E2000E6FFDACFE6FFE1CFD9FFE2CFDAFFE65205
:100E3000C950DF6E9E96C69EFD0EDB50C96EC6AED3
:100E400002D0FF0E03D09EA6FED7000EE552E5525B
:0A0E5000E5CFDAFFE7CFD9FF12006B
:060E5A00D9CFE6FFDACF5C
:100E6000E6FFE1CFD9FFE2CFDAFFC30EC214006E76
:100E7000FD0EDB407F0B3C0B0010C26EE552E5CF50
:080E8000DAFFE7CFD9FF1200F1
:080E8800276A266A100EE76ECE
:100E9000D8902A362B36263627362F50265C3050EF
:100EA000275805E32F50265E3050275A2A2AE72E6E
:040EB000F0D7120065
:0C0EB400000EF36E00EE00F0080E01D8F6
:100EC0001200EA6002D0EE6AFCD7F350E96012002B
:040ED000EE6AFCD7F3
:0C0ED40013EE00F023EE00F0F86A239CFF
:100EE00057EC06F095EC07F0A0EC02F0FBD71200EF
:100EF000FF0EE350E84E1200000000D000D000D0FA
:060F0000E82EFAD71200F2
:0A0F0600C450036E026AC3500210CB
:080F1000F36E03C0F4FF1200B0
:080F1800C250020B01E0010EC2
:020F20001200BD
:040F2200C69A120059
:040F2600C282120071
:020F2A001200B3
:040F2C000A0A0000AD
:100F3000140028003C0050006400780005050505F9
:050F4000050505050593
:00000001FF
